:10F000000708090A0405060B0102030C0D000E0F88
:0600000002003002025A6A
:03001B000200E1FF
:1000300075891175A889D28812029075900C538029
:100040000FE5342533F5328532358533368534373F
:100050007530FC7531CF78347935863C873D120098
:10006000D5AD3D11C1E580453AF580D287D2B012B9
:1000700000CCC2B0C28712015CE5804539F580D260
:1000800086D2B01200CCC2B0C28612015CAD3C1167
:10009000C1E580453AF580D285D2B01200CCC2B01D
:1000A000C28512015CE5804539F580D284D2B01258
:1000B00000CCC2B0C28412015C208EA50201710185
:1000C0003BED75F00A84F53985F03A227B107CC847
:1000D000DCFEDBFA22753B64758B00758DDCD28EFD
:1000E00022758B00758DDCD28ED53B0D153C153DF0
:1000F000753B641200FA12012B32E53C70031201C9
:100100000222120163E530C2E30320E70ED2E7F5D5
:1001100030E5905530F59018863C227530FC120180
:1001200063E5905530F590783480EDE53D7003122D
:1001300001332212016AE531C2E60320E20ED2E267
:10014000F531E5905531F59019873D227531E7126B
:10015000016AE5905531F590793780EDE58054F0EE
:10016000F58022D290D291D29222D293D294D2957B
:1001700022C2A4C2A5C2A6C2A730A00C30A10930D9
:10018000A20630A30302006111CC31FFE53EB40AA0
:10019000030201DEB40B061202900201DEB40C036E
:1001A0000201DEB40F1CE590B4240975901275406D
:1001B000330201B923F5900540753C00753D0002FE
:1001C00001DEB40D05753F00013BB40E0FE540B4F0
:1001D00033058A330201D98A340201DE5175753F35
:1001E00000808E20A004753F012220A104753F02EB
:1001F0002220A204753F032220A303753F0422C2DC
:10020000A4D2A5D2A6D2A731E3E53F600590F000C5
:100210008037C2A5D2A4D2A6D2A731E3E53F6005BC
:1002200090F0048024C2A6D2A5D2A4D2A731E3E5DF
:100230003F600590F0088011C2A7D2A5D2A6D2A433
:1002400031E3E53F601390F00CD382A082A182A23B
:1002500082A350F524FF93F53E22C28E1202603233
:10026000C287C286C285C284759012753C00753DF6
:100270000075403322FAE53C600FB40A0040067571
:10028000F00A84E5F075F00AA42AF53CF53DFA225F
:0A029000753218753303753415221A
:00000001FF
